:020000040800F2
:100000000000022059CD0008A5740008DB74000828
:10001000ED740008EF740008F1740008000000009F
:10002000000000000000000000000000814F0008F8
:10003000F37400080000000021500008F574000867
:10004000ADCD0008ADCD0008ADCD0008ADCD0008A8
:10005000ADCD0008ADCD00081D770008ADCD00087E
:1000600027770008317700083B770008FD74000807
:10007000ADCD00080D750008ADCD00081D75000858
:100080002D750008ADCD0008157600083D750008F7
:100090004D7500085D7500086D750008457700080E
:1000A000ADCD0008CD760008ADCD0008ADCD00087F
:1000B000ADCD0008ADCD0008ADCD0008FD7600083F
:1000C0000D770008ADCD0008ADCD0008ADCD00081E
:1000D000ADCD0008ADCD0008ADCD0008ADCD000818
:1000E0006B770008ADCD0008ADCD0008ADCD0008A0
:1000F000E57600087D750008ADCD0008ADCD00089F
:10010000ADCD0008ADCD0008B176000895750008AA
:10011000A5750008ADCD0008ADCD0008ADCD000837
:10012000ADCD0008ADCD0008ADCD0008ADCD0008C7
:10013000ADCD00080000000000000000ADCD0008BB
:10014000ADCD0008ADCD0008ADCD0008B5750008F7
:10015000ADCD0008ADCD0008ADCD0008ADCD000897
:10016000ADCD0008ADCD0008ADCD0008ADCD000887
:10017000ADCD0008ADCD000800000000000000007B
:08018000ADCD0008ADCD000873
:1001900010B5054C237833B9044B13B10448AFF3C1
:1001A00000800123237010BD08060020000000001D
:1001B0007CF3020808B5034B1BB103490348AFF3B6
:1001C000008008BD000000000C0600207CF302083F
:1001D00010F8012B11F8013B012A28BF9A42F7D0F1
:1001E000D01A7047034613F8012B002AFBD1181AC6
:1001F000013870470000000000000000000000000F
:1002000001F0FF01102A2BDB10F0070F08D010F8C7
:10021000013B013A8B422DD010F0070F42B3F6D1CB
:10022000F0B441EA012141EA014122F007047FF0E4
:1002300000070023F0E80256083C85EA010586EA3B
:10024000010685FA47F5A3FA87F586FA47F6A5FA77
:1002500087F68EB9EED1F0BC01F0FF0102F0070283
:1002600032B110F8013B013A83EA010313B1F8D12E
:100270000020704701387047002D06BF354603380F
:10028000073815F0010F07D1013015F4807F02BF48
:10029000013015F4C03F0130F0BC0138704700BF99
:1002A00081F0004102E000BF83F0004330B54FEA27
:1002B00041044FEA430594EA050F08BF90EA020F94
:1002C0001FBF54EA000C55EA020C7FEA645C7FEA27
:1002D000655C00F0E2804FEA5454D4EB5555B8BF4A
:1002E0006D420CDD2C4480EA020281EA030382EABB
:1002F000000083EA010180EA020281EA0303362D4D
:1003000088BF30BD11F0004F4FEA01314FF4801C1F
:100310004CEA113102D0404261EB410113F0004F31
:100320004FEA03334CEA133302D0524263EB4303E8
:1003300094EA050F00F0A780A4F10104D5F1200E86
:100340000DDB02FA0EFC22FA05F2801841F10001E1
:1003500003FA0EF2801843FA05F359410EE0A5F1B5
:1003600020050EF1200E012A03FA0EFC28BF4CF0E6
:10037000020C43FA05F3C01851EBE37101F000459C
:1003800007D54FF0000EDCF1000C7EEB00006EEBA9
:100390000101B1F5801F1BD3B1F5001F0CD3490833
:1003A0005FEA30004FEA3C0C04F101044FEA44528A
:1003B00012F5800F80F09A80BCF1004F08BF5FEA11
:1003C000500C50F1000041EB045141EA050130BDF1
:1003D0005FEA4C0C404141EB0101013C28BFB1F503
:1003E000801FE9D291F0000F04BF01460020B1FA4E
:1003F00081F308BF2033A3F10B03B3F120020CDA21
:100400000C3208DD02F1140CC2F10C0201FA0CF0FE
:1004100021FA02F10CE002F11402D8BFC2F1200C63
:1004200001FA02F120FA0CFCDCBF41EA0C01904019
:10043000E41AA2BF01EB0451294330BD6FEA040462
:100440001F3C1CDA0C340EDC04F11404C4F120024D
:1004500020FA04F001FA02F340EA030021FA04F35F
:1004600045EA030130BDC4F10C04C4F1200220FAB6
:1004700002F001FA04F340EA0300294630BD21FAF4
:1004800004F0294630BD94F0000F83F4801306BFBA
:1004900081F480110134013D4EE77FEA645C18BFAE
:1004A0007FEA655C29D094EA050F08BF90EA020F45
:1004B00005D054EA000C04BF1946104630BD91EA3D
:1004C000030F1EBF0021002030BD5FEA545C05D140
:1004D0004000494128BF41F0004130BD14F580047F
:1004E0003CBF01F5801130BD01F0004545F0FE41F3
:1004F00041F470014FF0000030BD7FEA645C1ABF28
:10050000194610467FEA655C1CBF0B46024650EA5E
:10051000013406BF52EA033591EA030F41F400218A
:1005200030BD00BF90F0000F04BF0021704730B510
:100530004FF4806404F132044FF000054FF00001E5
:1005400050E700BF90F0000F04BF0021704730B5A6
:100550004FF4806404F1320410F0004548BF40427B
:100560004FF000013EE700BF42004FEAE2014FEAD0
:1005700031014FEA02701FBF12F07F4393F07F4FAB
:1005800081F06051704732F07F4208BF704793F0AE
:100590007F4F04BF41F40021704730B54FF46074C1
:1005A00001F0004521F000411CE700BF50EA0102C4
:1005B00008BF704730B54FF000050AE050EA01026D
:1005C00008BF704730B511F0004502D5404261EBDD
:1005D00041014FF4806404F132045FEA915C3FF41E
:1005E000D8AE4FF003025FEADC0C18BF03325FEABB
:1005F000DC0C18BF033202EBDC02C2F1200300FA6C
:1006000003FC20FA02F001FA03FE40EA0E0021FA90
:1006100002F11444BDE600BF70B54FF0FF0C4CF47E
:10062000E06C1CEA11541DBF1CEA135594EA0C0F30
:1006300095EA0C0F00F0DEF82C4481EA030621EA6B
:100640004C5123EA4C5350EA013518BF52EA0335A6
:1006500041F4801143F4801338D0A0FB02CE4FF058
:100660000005E1FB02E506F00042E0FB03E54FF088
:100670000006E1FB03569CF0000F18BF4EF0010E80
:10068000A4F1FF04B6F5007F64F5407404D25FEA7C
:100690004E0E6D4146EB060642EAC62141EA55512F
:1006A0004FEAC52040EA5E504FEACE2EB4F1FD0C71
:1006B00088BFBCF5E06F1ED8BEF1004F08BF5FEAEF
:1006C000500E50F1000041EB045170BD06F00046A1
:1006D00046EA010140EA020081EA0301B4EB5C044E
:1006E000C2BFD4EB0C0541EA045170BD41F4801146
:1006F0004FF0000E013C00F3AB8014F1360FDEBF6B
:10070000002001F0004170BDC4F10004203C35DA46
:100710000C341BDC04F11404C4F1200500FA05F3C9
:1007200020FA04F001FA05F240EA020001F000426A
:1007300021F0004110EBD37021FA04F642EB0601E0
:100740005EEA430E08BF20EAD37070BDC4F10C040A
:10075000C4F1200500FA04F320FA05F001FA04F2CE
:1007600040EA020001F0004110EBD37041F10001BA
:100770005EEA430E08BF20EAD37070BDC4F12005C5
:1007800000FA05F24EEA020E20FA04F301FA05F22D
:1007900043EA020321FA04F001F0004121FA04F2D5
:1007A00020EA020000EBD3705EEA430E08BF20EAA5
:1007B000D37070BD94F0000F0FD101F000464000DF
:1007C00041EB010111F4801F08BF013CF7D041EA61
:1007D000060195F0000F18BF704703F00046520065
:1007E00043EB030313F4801F08BF013DF7D043EA36
:1007F0000603704794EA0C0F0CEA135518BF95EAEC
:100800000C0F0CD050EA410618BF52EA4306D1D172
:1008100081EA030101F000414FF0000070BD50EA91
:10082000410606BF1046194652EA430619D094EA1B
:100830000C0F02D150EA013613D195EA0C0F05D105
:1008400052EA03361CBF104619460AD181EA030159
:1008500001F0004141F0FE4141F470014FF0000011
:1008600070BD41F0FE4141F4780170BD70B54FF0AC
:10087000FF0C4CF4E06C1CEA11541DBF1CEA13552C
:1008800094EA0C0F95EA0C0F00F0A7F8A4EB05040E
:1008900081EA030E52EA03354FEA013100F0888005
:1008A0004FEA03334FF0805545EA131343EA1263CE
:1008B0004FEA022245EA111545EA10654FEA002683
:1008C0000EF000419D4208BF964244F1FD0404F53C
:1008D000407402D25B084FEA3202B61A65EB030598
:1008E0005B084FEA32024FF480104FF4002CB6EB55
:1008F000020E75EB030E22BFB61A754640EA0C00D5
:100900005B084FEA3202B6EB020E75EB030E22BF14
:10091000B61A754640EA5C005B084FEA3202B6EB55
:10092000020E75EB030E22BFB61A754640EA9C0014
:100930005B084FEA3202B6EB020E75EB030E22BFE4
:10094000B61A754640EADC0055EA060E18D04FEAA2
:10095000051545EA16754FEA06164FEAC30343EA42
:1009600052734FEAC2025FEA1C1CC0D111F4801F0F
:100970000BD141EA00014FF000004FF0004CB6E708
:1009800011F4801F04BF01430020B4F1FD0C88BFA7
:10099000BCF5E06F3FF6AFAEB5EB030C04BFB6EBB2
:1009A000020C5FEA500C50F1000041EB045170BDA5
:1009B0000EF0004E4EEA113114EB5C04C2BFD4EBD2
:1009C0000C0541EA045170BD41F480114FF0000E56
:1009D000013C90E645EA060E8DE60CEA135594EAD2
:1009E0000C0F08BF95EA0C0F3FF43BAF94EA0C0FD5
:1009F0000AD150EA01347FF434AF95EA0C0F7FF44A
:100A000025AF104619462CE795EA0C0F06D152EA9D
:100A100003353FF4FDAE1046194622E750EA410681
:100A200018BF52EA43067FF4C5AE50EA41047FF492
:100A30000DAF52EA43057FF4EBAE12E74FF0FF3CF7
:100A400006E000BF4FF0010C02E000BF4FF0010CC8
:100A50004DF804CD4FEA410C7FEA6C5C4FEA430C41
:100A600018BF7FEA6C5C1BD001B050EA410C0CBF90
:100A700052EA430C91EA030F02BF90EA020F0020F2
:100A8000704710F1000F91EA030F58BF994208BF59
:100A900090422CBFD8176FEAE37040F00100704716
:100AA0004FEA410C7FEA6C5C02D150EA013C07D16D
:100AB0004FEA430C7FEA6C5CD6D152EA033CD3D0B8
:100AC0005DF8040B704700BF8446104662468C46B2
:100AD0001946634600E000BF01B5FFF7B7FF0028E5
:100AE00048BF10F1000F01BD4DF808EDFFF7F4FF0E
:100AF0000CBF012000205DF808FB00BF4DF808ED99
:100B0000FFF7EAFF34BF012000205DF808FB00BFBB
:100B10004DF808EDFFF7E0FF94BF012000205DF8DD
:100B200008FB00BF4DF808EDFFF7CEFF94BF012092
:100B300000205DF808FB00BF4DF808EDFFF7C4FF8B
:100B400034BF012000205DF808FB00BF4FEA410CD4
:100B50007FEA6C5C02D150EA013C0AD14FEA430CB7
:100B60007FEA6C5C02D152EA033C02D14FF00000F4
:100B700070474FF0010070474FEA410212F5001232
:100B800015D211D56FF47873B3EB625212D94FEAD4
:100B9000C12343F0004343EA505311F0004F23FABE
:100BA00002F018BF404270474FF00000704750EA13
:100BB000013005D111F0004008BF6FF000407047D0
:100BC0004FF00000704700BF4A0011D212F500122A
:100BD00011D20DD56FF47873B3EB62520ED44FEA95
:100BE000C12343F0004343EA505323FA02F0704715
:100BF0004FF00000704750EA013002D14FF0FF3053
:100C000070474FF0000070474FEA4102B2F1E043F5
:100C100024BFB3F5001CDCF1FE5C0DD901F0004CE3
:100C20004FEAC0024CEA5070B2F1004F40EB830033
:100C300008BF20F00100704711F0804F21D113F15F
:100C40003872BCBF01F00040704741F480114FEA98
:100C50005252C2F11802C2F1200C10FA0CF320FA21
:100C600002F018BF40F001004FEAC1234FEAD3233E
:100C700003FA0CFC40EA0C0023FA02F34FEA4303A8
:100C8000CCE77FEA625307D150EA01331EBF4FF031
:100C9000FE4040F44000704701F0004040F0FE404C
:100CA00040F40000704700BF7BB972B90029BEBF95
:100CB00000204FF0004106E008BF00281CBF6FF085
:100CC00000414FF0FF3001F05FB9ADF1080C6DE964
:100CD00004CE002909DB002B1ADB00F083F8DDF8D5
:100CE00004E0DDE9022304B07047404261EB4101BA
:100CF000002B1BDB00F076F8DDF804E0DDE90223D1
:100D000004B0404261EB4101524263EB4303704740
:100D1000524263EB430300F065F8DDF804E0DDE9DF
:100D2000022304B0404261EB41017047524263EB41
:100D3000430300F057F8DDF804E0DDE9022304B0D6
:100D4000524263EB4303704753B94AB9002908BFC5
:100D500000281CBF4FF0FF314FF0FF3001F014B9F5
:100D6000ADF1080C6DE904CE00F03CF8DDF804E0CC
:100D7000DDE9022304B0704738B5002200230446A1
:100D80000D46FFF7BBFE28B920462946BDE838408E
:100D900000F00AB8204605F1004100F005F8404295
:100DA00061EB410138BD00BFD0B50C4B00220646B7
:100DB0000F46FFF731FCFFF707FF0446FFF7B2FBD2
:100DC000074B0022FFF728FC02460B463046394607
:100DD000FFF76AFAFFF7F8FE2146D0BD0000F03DAC
:100DE0000000F0412DE9F047089D04468E46002B97
:100DF0004DD18A42944669D9B2FA82F252B101FACF
:100E000002F3C2F1200120FA01F10CFA02FC41EADE
:100E1000030E94404FEA1C48210CBEFBF8F61FFA63
:100E20008CF708FB16E341EA034306FB07F19942FE
:100E30000AD91CEB030306F1FF3080F01F819942B1
:100E400040F21C81023E63445B1AA4B2B3FBF8F08B
:100E500008FB103344EA034400FB07F7A7420AD912
:100E60001CEB040400F1FF3380F00A81A74240F23A
:100E700007816444023840EA0640E41B00261DB1A5
:100E8000D4400023C5E900433146BDE8F0878B42DA
:100E900009D9002D00F0EF800026C5E90001304699
:100EA0003146BDE8F087B3FA83F6002E4AD18B4273
:100EB00002D3824200F2F980841A61EB030301201D
:100EC0009E46002DE0D0C5E9004EDDE702B9FFDE09
:100ED000B2FA82F2002A40F09280A1EB0C014FEAB4
:100EE0001C471FFA8CFE0126200CB1FBF7F307FB11
:100EF000131140EA01410EFB03F0884208D91CEBB4
:100F0000010103F1FF3802D2884200F2CB80434650
:100F1000091AA4B2B1FBF7F007FB101144EA01442F
:100F20000EFB00FEA64508D91CEB040400F1FF31BE
:100F300002D2A64500F2BB800846A4EB0E0440EAAC
:100F400003409CE7C6F12007B34022FA07FC4CEAB5
:100F5000030C20FA07F401FA06F31C43F9404FEAA8
:100F60001C4900FA06F3B1FBF9F8200C1FFA8CFEBD
:100F700009FB181140EA014108FB0EF0884202FA11
:100F800006F20BD91CEB010108F1FF3A80F08880D2
:100F9000884240F28580A8F102086144091AA4B28F
:100FA000B1FBF9F009FB101144EA014100FB0EFE10
:100FB0008E4508D91CEB010100F1FF346CD28E453F
:100FC0006AD90238614440EA0840A0FB0294A1EBD0
:100FD0000E01A142C846A64656D353D05DB1B3EB2D
:100FE000080261EB0E0101FA07F722FA06F3F1405D
:100FF0001F43C5E9007100263146BDE8F087C2F104
:101000002003D8400CFA02FC21FA03F3914001437B
:101010004FEA1C471FFA8CFEB3FBF7F007FB1036B4
:101020000B0C43EA064300FB0EF69E4204FA02F460
:1010300008D91CEB030300F1FF382FD29E422DD9B3
:10104000023863449B1B89B2B3FBF7F607FB1633E8
:1010500041EA034106FB0EF38B4208D91CEB010168
:1010600006F1FF3816D28B4214D9023E6144C91AE8
:1010700046EA004638E72E46284605E70646E3E6F8
:101080001846F8E64B45A9D2B9EB020864EB0C0E02
:101090000138A3E74646EAE7204694E74046D1E711
:1010A000D0467BE7023B614432E7304609E76444BF
:1010B000023842E703685A004CBF43F0004323F074
:1010C00000431844704700BF2DE9F84329B34F1E71
:1010D000044615463E464FF0000808EB060101EBBA
:1010E000D171491004EBC1094846FFF7E3FF0346FD
:1010F000C80008308F42204409D0AB4209D8FFF71E
:10110000D9FF0138A8420AD201F10108E5E7AB4254
:1011100005D9884501D04E1EDFE74FF0000948464B
:10112000BDE8F883012807D0022807D0044B002827
:101130000CBF1846002070470248704702487047AD
:10114000FD170008011800080518000830B5234BEA
:1011500083B004468D1E3BB301A92846AFF300803F
:10116000E8B101992A46FFF7AFFF0146B8B1FFF792
:10117000A1FF4B68A064012B2CD0002B01F10400CF
:1011800024DBFFF797FF0023C4E913030368002B58
:1011900011DBFFF78FFF2061002003B030BD00237B
:1011A0000920236103B030BD0D4B0E49C91AC91087
:1011B00018460191D6E7C3F30360FFF7B3FF002899
:1011C000206114BF0020092003B030BD0123C4E911
:1011D0001303DBE7002323610520DEE700000000A6
:1011E000F0E1030820F103080368DA0710B50446AC
:1011F00006D49B0700F1480009D500F05BFC23688A
:10120000590709D51A070ED5DB0613D510BD00F016
:1012100049FC23685907F5D404F1D00000F052FCD2
:1012200023681A07F0D404F5A87000F053FC236873
:10123000DB06EBD404F5E870BDE8104000F08EBC8E
:10124000092070470346006800B11844704700BF8A
:10125000704700BF70B504460E46316C2046FFF75C
:1012600075FF054688B9326C6261236932462146B2
:10127000012098470828F0D0072806D12846316C6D
:10128000FFF7E6FF301D00F001FC28F0F7FE00BF7D
:101290002DE9F0470D1DD0F80C80D0F818900746C6
:1012A00014460FCDADF5727D0DF10C0CACE80F00BE
:1012B0000FCDACE80F000FCDACE80F0095E80F00A4
:1012C00002AE4FF0000E8CE80F00C6F800E020E000
:1012D000336C7B614FF4F07231467AA828F040FFFE
:1012E0003B697AAA394650469847889B73642146E1
:1012F000CDE9006905463B463A460120C047044611
:10130000E0B94FF4F0727AA9304628F029FF082D91
:101310001AD1316C3846FFF719FF09345FFA84FAA5
:1013200005460028D4D0B36B73643A46CDE9006912
:101330003B464AF010010120C04700B1092528466C
:101340000DF5727DBDE8F087072DF7D12046316C91
:10135000FFF77EFF03A800F099FB00BF406C7047C9
:10136000F0B5CB6B0B6401F1040C0E460546BCE8EE
:101370000F00F9B001AC0FC4BCE80F000FC4BCE80B
:101380000F000FC49CE80F004FF0FF3784E80F00F8
:10139000009706E02B696A462946984708280446C4
:1013A00008D110992846FFF7D1FE0028F2D0092075
:1013B00079B0F0BD6846FFF717FF062CF7D131462C
:1013C0002846FFF747FF00BFC160D96B82611964EF
:1013D000002219465CE700BF70B5C66843690B641C
:1013E000AEB903690A4604460D46014602209847F5
:1013F000072805D008280FD129462046FFF72AFFE5
:101400003046296CFFF724FF281D00F03FFB012226
:10141000FFF73EFF28F032FE28F030FEC2681AB116
:10142000CA6B0A64002233E79AE700BF704700BF27
:10143000836801460BB1012018477047012912D07B
:1014400009D873B90F2A0CD800EB820218465368EA
:10145000009A136070470339012994BF01200220CC
:101460007047022070470846704700BF00B585B03E
:101470000A46002303A900911946FFF7DFFF0398EE
:1014800005B05DF804FB00BF012912D009D873B97B
:101490000F2A0CD800EB8200009A126842601846AE
:1014A00070470339012994BF0120022070470220B0
:1014B00070470846704700BF10B584B0002303ACE6
:1014C000039200940A461946FFF7DEFF04B010BDF0
:1014D00070B5D36B136402F1040C05460C46BCE8EE
:1014E0000F00ADF50E7D0DF15C0EAEE80F00BCE80F
:1014F0000F00AEE80F00BCE80F00AEE80F009CE85C
:101500000F004FF0FF368EE80F00169610E0FFF741
:10151000D3FF214616A8A847034616AA6946082005
:1015200083B9049B9847052806460CD0092809D0A2
:1015300026996846FFF70AFE03466A460C2116A85C
:10154000002BE4D0092616A8FFF74EFE30460DF515
:101550000E7D70BD2DE9F04FCC6C89B01E4654F85D
:10156000043B06940D46174600F00308002E79D080
:101570001A0C1B0405938DF81D200223D2B204EB34
:1015800082048DF81C302B6DB8F1020F08BFAC6BD4
:1015900013F001030CD005A9384600F079FB18B907
:1015A000082009B0BDE8F08F092009B0BDE8F08F30
:1015B000D4F800A0BAF1000FEDD0019300F00803B9
:1015C0000293022E4AD0B4F800A0B4F8029004347A
:1015D000AB6C29F0010B0F2138469B44FFF746FF07
:1015E000834539D82AF001039B44834594BF0020EA
:1015F00001204FEA490303F002030AF0010A43EA1B
:101600000A03012B49D0022B32D0002BCCD1B8F1E8
:10161000000F02D0002840F0CD800434D4F800A0A0
:10162000BAF1000FCDD105A9384600F031FB0028F2
:10163000BAD1019B002BB3D00F213846FFF716FF1C
:101640000E2102463846FFF737FF38466A4A0F2117
:10165000FFF732FF0720A8E70020CAE7D4F804907C
:101660000834B5E71B0205930323ADF81C308AE765
:10167000236823F0004BB8F1000F45D128B1029A3E
:10168000002A5CD0BBF1000F74D0002B00DA0434C8
:101690000BF1010B04EB8B04C0E7B8F1000F19D17B
:1016A000B0B163682268991C4FEAD2723FF47CAFF4
:1016B00005F158010133049100F09080201DFFF7DF
:1016C000C1FD04AB0146284627F056FC00285BD13B
:1016D0000834A3E70D213846D5F82090FFF7C6FE61
:1016E0008145F5D1AB6A9C42F2D12046FFF7E2FC7E
:1016F0000F2102463846FFF7DFFE38462A46002112
:10170000FFF7DAFE072050E70D213846D5F8209084
:10171000FFF7ACFE814501D02368B6E7AB6A9C4277
:10172000FAD104230022C5E90B23E318C5F828B039
:101730006B632368002B59DB01230193A8E705F1B4
:101740005803CDF80C8004F1040AB04691461E46B9
:101750000EE050460496FFF775FD0022014604ABEB
:10176000284609F101090AF1040A27F005FCE0B94D
:10177000D945EED10D213846FFF778FE049BAC62C7
:10178000C5E90803062010E781460D213846FFF71A
:101790006DFEB9F1020F286225D12B46049A43F859
:1017A0002C2F6B62AC620620FFE646462368DDF80C
:1017B0000C806AE72046FFF77DFC04340246AC63E8
:1017C0002846144627F036FC00283FF4EDAE384694
:1017D00022460F21FFF770FE0720E6E60D2138466E
:1017E000FFF744FE2862049B6B62DBE70BF101000C
:1017F00004EB80007AE700BFF99C02080023A9E609
:101800000123A7E60223A5E62DE9F0430646C3B06F
:1018100015461C46042900F2BF80DFE801F09E5700
:10182000BD2D0300002C40F0B780102A00F2B480D8
:101830000368D80600F1F98020AF384600F098F927
:10184000B46B394600234FF0010C0CFA03F22A4224
:10185000204603F1010303D050F8042B0A6004462C
:10186000042B01F10401F0D13846B46300F076F99D
:10187000002043B0BDE8F083032C40F08D8094B28B
:1018800004EB1243102B4FEA124500F285800368E7
:101890001F0700F1D28020AF384600F03DF9B26B4F
:1018A00007EBC50154B10B46D01A01EBC401E400AB
:1018B0001D5843F8045B8B42FAD122443846B26388
:1018C00000F008F9002043B0BDE8F083012C4FEA96
:1018D000124895B25CD0052C5ED108EB0509B9F130
:1018E000200F59D8B8F10F0F79D9A946002D40F033
:1018F0008A80B36B6DB320AF4FF0000907EBC807C8
:10190000043F03EBC50553F8041B47F8041FAB4223
:10191000F9D1B9F1000F0FD06F464146102938BFF9
:10192000102107EBC101843903EBC90553F8040BFF
:1019300041F8040FAB42F9D1012C00F08680B8F1D8
:101940000F0FB56347D9B9F1000F02D0684600F018
:10195000B9F8002043B0BDE8F083ECB9806B2346B2
:101960001FFA82FC0124371D04FA03F212EA0C0F5D
:10197000014604D051F8042B47F8232008460133D0
:10198000102BF1D115F40055E3D1B063284604E0E3
:1019900008EB0503102B03D9022043B0BDE8F08308
:1019A000B8F10F0FF8D83368DA0706D5304623F0C0
:1019B000030340F8483B00F079F820AF384600F0C8
:1019C00075F8B36B002D97D11D460435B5633846C5
:1019D00000F068F8BDE720A800F06CF8B3E7B9F1B3
:1019E000100F40D9A9F110093368D90708D523F0A1
:1019F0000103304643F0020340F8483B00F05EF834
:101A0000B9F1000F32D033685A0720D4B8F10F0F64
:101A100025D96F463846C8F1100500F057F8002D5B
:101A2000B36B7FF77AAF20AF68E723F01003336022
:101A300006F5E87000F09CF8FEE623F0080303606A
:101A400000F5A87000F068F825E720AFBDE7304644
:101A500023F0040340F8D03B00F038F8D6E720A884
:101A600000F02CF8D5E74FF00009BDE7B8F10F0FF3
:101A70003FF63FAF20AF384600F020F8B36B002DA3
:101A80007FF43AAF384600F015F862E700F1340110
:101A900091E838009C46A6464CF8045D90E8FF0F9C
:101AA000E54600BD90EC210B704700BF80EC210B98
:101AB000704700BF90EC200B704700BF80EC200BFC
:101AC000704700BFD0EC200B704700BFC0EC200B6C
:101AD000704700BFF0EC0201F0EC0211F0EC0221C3
:101AE000F0EC0231F0EC0241F0EC0251F0EC02615A
:101AF000F0EC0271F0EC0281F0EC0291F0EC02A14A
:101B0000F0EC02B1F0EC02C1F0EC02D1F0EC02E139
:101B1000F0EC02F1704700BFE0EC0201E0EC0211D2
:101B2000E0EC0221E0EC0231E0EC0241E0EC025199
:101B3000E0EC0261E0EC0271E0EC0281E0EC029189
:101B4000E0EC02A1E0EC02B1E0EC02C1E0EC02D179
:101B5000E0EC02E1E0EC02F1704700BFB0FC018173
:101B6000B0FC0191B0FC01A1B0FC01B1704700BF15
:101B7000A0FC0181A0FC0191A0FC01A1A0FC01B18D
:101B8000704700BFEC4600B52DE900502DE9FF1F5E
:101B90004FF000032DE90C0001A9FFF7E1FBDDF890
:101BA00040E012B0704700BFEC4600B52DE9005090
:101BB0002DE9FF1F4FF000032DE90C0001A9FFF7ED
:101BC0000BFCDDF840E012B0704700BFEC4600B5FA
:101BD0002DE900502DE9FF1F4FF000032DE90C0007
:101BE00001A9FFF71BFCDDF840E012B0704700BF11
:101BF000EC4600B52DE900502DE9FF1F4FF0000322
:101C00002DE90C0001ABFFF7DFFBDDF840E012B07F
:101C1000704700BFEC4600B52DE900502DE9FF1FCD
:101C20004FF000032DE90C0001AAFFF751FCDDF88D
:101C300040E012B0704700BF027A03467AB9427A98
:101C4000A2B14168013A10B44272086803220C1D27
:101C50001A7202025C60000E10BC1A6070470068C5
:101C6000013A1A7202021A60000E7047B0207047E3
:101C700000B585B0002303AA009219460C22FFF795
:101C8000DDFB039805B05DF804FB00BFF0E700BF83
:101C90002DE9F043054685B00E464FF0000830466A
:101CA000FFF7CAFFB028044600F0BA80070620D527
:101CB00000F0F003802B4DD0902B36D0A02B60D0BD
:101CC000B02B74D0C02B00F08B8000F0F803D02B29
:101CD0000BD100F007020132052342F4002201215A
:101CE0002846FFF791FD0028D9D0092005B0BDE8AE
:101CF000F0838300DBB21F1D0DF10C090023194690
:101D0000CDF800900D222846FFF798FB039BCDF8F5
:101D1000009060064CBFDF1BFF1800230D22194600
:101D200028460397FFF7B0FBB9E700F00D030D2B32
:101D3000DBD003AF002300F00F02194600972846BE
:101D4000FFF77CFB002300970D2219462846FFF77A
:101D50009BFBA4E73046FFF76FFF24022043B0F55A
:101D6000004FC2D004010023A2B219462846FFF753
:101D70004BFD0028B9D114F4004F18BF4FF00108F3
:101D80008DE7C24302F007034FF47F621A41010757
:101D900002F47F624FF0000348BF42F480421946CC
:101DA0002846FFF731FD00283FF479AF9DE7B128C1
:101DB0003BD0B22800F09380B32841D000F0FC0360
:101DC000B42B92D000F007020132012342F400222A
:101DD00019462846FFF718FD00283FF460AF84E756
:101DE000C6284AD0C72854D000F0F803C02B63D0CF
:101DF000C82868D0C9287FF478AF3046FFF71CFFA9
:101E0000020300F00F0002F47022013002430121AE
:101E100005232846FFF7F8FC00283FF440AF64E7AD
:101E2000B8F1000F18D0002060E73046FFF704FF3C
:101E3000024600283FF459AF10F0F003C8D054E731
:101E40003046FFF7F9FE020300F00F03013302F4FE
:101E500070221A430123BBE703AC43460E224146DE
:101E600000942846FFF7EAFA009443460F224146C1
:101E70002846FFF709FB404638E73046FFF7DCFE0F
:101E8000020300F00F03013302F470221A4303230C
:101E90009EE73046FFF7D0FE024600283FF425AF0C
:101EA00010F0F0037FF421AF04212846FFF7ACFCCB
:101EB00000283FF4F4AE18E700F00F0201320323CC
:101EC00042F4202284E73046FFF7B6FE00F0F0022D
:101ED00000F00F031032013343EA023297E7002388
:101EE0000DF10C090D221946CDF800902846FFF798
:101EF000A5FA3046FFF7A0FE02064FF002040CD50B
:101F0000039B00F07F00A040184403903046FFF789
:101F100093FE030604F10704F2D4039BCDF800906E
:101F200000F07F02A24003F501731A4400230392DC
:101F300019460D222846FFF7A7FAB0E610B5C26C85
:101F4000536884B04FF0030C08321C0208461B0E85
:101F500001A9019402928DF80CC08DF80D30FFF7A5
:101F600097FE04B010BD00BF08B5FFF78FFE806C70
:101F700008BD00BF08B5FFF789FEC06CC379023306
:101F800000EB830008BD00BF704700BFF1EE103AC0
:101F900043F08073E1EE103A704700BF074AD36800
:101FA00023F4E0631B041B0C000200F4E060034315
:101FB00043F0BF6343F40033D360704700ED00E0AB
:101FC00000B5194BDB68C3F30223C3F1070CBCF166
:101FD000040F28BF4FF0040C03F1040EBEF1060FEE
:101FE00018D9033B4FF0FF3E0EFA0CFC21EA0C011E
:101FF00099400EFA03F322EA0303194300280BDB8E
:102000000901C9B200F1604000F5614080F8001399
:102010005DF804FB0023E5E700F00F000901C9B2F9
:10202000024B1954F4E700BF00ED00E014ED00E0AE
:1020300000F01F02400901239340024A42F8203079
:10204000704700BF00E100E000F01F0240090123DB
:1020500093402030014A42F82030704700E100E010
:102060000138B0F1807F0BD24FF0E0235861054A70
:10207000F02182F823100020986107221A6170472E
:102080000120704700ED00E0042806D04FF0E02268
:10209000136923F00403136170474FF0E0221369C2
:1020A00043F004031361704708B513460222C0F8D9
:1020B000F4218361C3610A46002102F011FE002071
:1020C00008BD08B513460A46002102F009FE0020AB
:1020D00008BD08B513460322C0F8F421C0F8083142
:1020E000C0F80C310A46002102F009FE002008BDAC
:1020F00008B513460A46002102F001FE002008BD83
:1021000008B50423C0F8F43100231A46194602F03A
:10211000E7FD002008BD08B50523C0F8F431002311
:102120001A46194602F0EBFD002008BD10B588B034
:10213000014600222D20FFF743FF2D20FFF778FFF7
:1021400000240194144B1A6C42F480721A641B6CC4
:1021500003F480730193019B02A903A805F0B6FE66
:1021600005F094FE43000D48A0FB03239B0C013BAC
:102170000B480C4A026040F2E732C26043600461DF
:10218000846008F0DBFE10B1012008B010BD0448E7
:1021900008F021FDF9E700BF0038024083DE1B4351
:1021A0002406002000200040002800F0A18038B55F
:1021B000044690F82030D3B12268136823F002035C
:1021C000136005F027F8054623685A6812F0020FDD
:1021D00010D005F01FF8401B0A28F5D9636A43F4B4
:1021E00000336362052384F82030012038BD05F0F8
:1021F0001BFBE1E71A6842F001021A6005F00AF8D9
:10220000054623685A6812F0010F0DD105F002F857
:10221000401B0A28F5D9636A43F40033636205233F
:1022200084F820300120E1E7227E012A3DD01A689F
:1022300022F080021A60637E012B3BD02268136873
:1022400023F040031360A37E012B39D0226813686A
:1022500023F020031360E37E012B37D0226813683C
:1022600043F010031360237F012B35D022681368DD
:1022700023F008031360637F012B33D022681368B7
:1022800023F004031360A368E26813432269134335
:10229000626913436268013A21681343CB610020ED
:1022A0006062012384F82030A0E71A6842F08002BF
:1022B0001A60C0E72268136843F040031360C2E766
:1022C0002268136843F020031360C4E72268136890
:1022D00023F010031360C6E72268136843F0080375
:1022E0001360C8E72268136843F004031360CAE769
:1022F0000120704790F82030DBB2012B0AD090F813
:102300002030DBB2022B05D0436A43F480234362C2
:102310000120704730B5454BD3F8002242F001024E
:10232000C3F80022D3F8002222F47C52C3F8002222
:10233000D3F80022486A42EA0022C3F800224A6920
:10234000012000FA02F2D3F81C026FEA020C20EA24
:102350000200C3F81C02CB69C3B9344BD3F80C029A
:102360000CEA0000C3F80C028C884869CD6844EA86
:102370000544483043F830408C68088840EA0440FF
:102380004C6904F1480E03EBCE035860CB69012B76
:102390001ED08B69002B33D12448D0F804320CEACC
:1023A0000303C0F804320B698BBB2048D0F8143209
:1023B0000CEA0303C0F814320B6A012B2ED01B4A1F
:1023C000D2F8003223F00103C2F80032002030BD01
:1023D000164BD3F80C021043C3F80C028C884869E2
:1023E0000D6844EA0544483043F8304088894C6918
:1023F0008D6840EA0540483403EBC4035860C8E7E1
:102400000A48D0F804321343C0F80432CBE7074837
:10241000D0F814321343C0F81432CDE70349D1F891
:102420001C321A43C1F81C22C9E700BF00640040F7
:1024300070B5044690F82050EDB2012D06D0436AE5
:1024400043F4002343620125284670BD022380F82F
:1024500020300268136823F00103136004F0DAFEF1
:10246000064623685B6813F0010F0CD004F0D2FE1F
:10247000831B0A2BF5D9636A43F400336362052397
:1024800084F82030E0E700256562DDE738B50446D2
:1024900090F82030DBB2022B05D0436A43F480135E
:1024A0004362012038BD0268136843F001031360E2
:1024B00004F0B0FE054623685A6812F0010F0DD1F2
:1024C00004F0A8FE431B0A2BF5D9636A43F40033DA
:1024D0006362052384F820300120E3E71A6822F0C4
:1024E00002021A60012384F820300020DAE790F815
:1024F00020C05FFA8CFCBCF1010F06D090F820C020
:102500005FFA8CFCBCF1020F6FD130B40468A5688F
:1025100015F0806F07D1A56815F0006F03D1A5688D
:1025200015F0805F5BD0A468C4F3016C012404FA49
:102530000CF41C608B68002B3ED10D68CB680468DE
:1025400043EA45550CF118031B01E55003680C697B
:102550000CF1180503EB05135C600B7D012B36D0E5
:10256000D17993791B0443EA0163517943EA01234A
:1025700014790168234301EB0C11C1F88C31D17837
:1025800093781B0443EA0163517843EA01231178ED
:1025900002680B4302EB0C12C2F8883102680CF19E
:1025A000180C4FEA0C1C52F80C3043F0010342F8AF
:1025B0000C30002030BC70474C6843EAC403CC6840
:1025C000056823430CF1180424012B51BEE703686E
:1025D00003EB0513596841F480715960C0E7436A01
:1025E00043F4001343620120E4E7436A43F4802389
:1025F00043620120704790F82030DBB2012B06D0F7
:1026000090F82030DBB2022B01D000207047036825
:10261000986810F0806000D001209A6812F0006F76
:1026200000D001309B6813F0805FEFD0013070471D
:1026300090F820C05FFA8CFCBCF1010F07D090F835
:1026400020C05FFA8CFCBCF1020F40F0958030B4E2
:1026500051B90468E46814F0030F12D1436A43F4DB
:1026600000134362012075E001290AD1046824693E
:1026700014F0030F05D1436A43F4001343620120B1
:1026800068E001F11B04240105682C5904F00404DE
:102690009460002C60D101F11B04240105682C59C1
:1026A000640D1460046801F11B0C4FEA0C1C54F813
:1026B0000C40C4F34004D46004686444646804F0CB
:1026C0000F041461046864446468C4F307249461CB
:1026D000046864446468240C5461026802EB0112CB
:1026E000D2F8B8211A70026802EB0112D2F8B821B0
:1026F000120A5A70026802EB0112D2F8B821120CC9
:102700009A70026802EB0112D2F8B821120EDA7048
:10271000026802EB0112D2F8BC211A71026802EBC6
:102720000112D2F8BC21120A5A71026802EB01129E
:10273000D2F8BC21120C9A71026802EB0112D2F895
:10274000BC21120EDA7179B90268D36843F0200314
:10275000D360002030BC704701F11B0424010568E0
:102760002C59E40854609DE70129F2D102681369ED
:1027700043F020031361ECE7436A43F48023436290
:102780000120704790F82030DBB2012B06D090F882
:102790002030DBB2022B01D00020704721B9036842
:1027A000D86800F0030070470368186900F0030060
:1027B000704790F82030DBB2012B0AD090F820301F
:1027C000DBB2022B05D0436A43F48023436201202D
:1027D000704702685369194351610020704790F8AF
:1027E0002030DBB2012B0AD090F82030DBB2022B74
:1027F00005D0436A43F48023436201207047026896
:10280000536923EA01015161002070472DE9F84F17
:10281000054603685C69D3F804809F68D3F80CB060
:10282000D3F810A0D3F8189014F001063BD017F09D
:10283000010616D001229A6017F0020F08D117F096
:10284000040F0CD117F0080606D04FF4805608E0AC
:1028500025F08AFF002604E025F089FF01E04FF40F
:10286000006617F4807F0DD02B684FF480729A6059
:1028700017F4007F40F0868017F4806F00F08680A8
:1028800046F4005617F4803F0DD02B684FF4803289
:102890009A6017F4003F40F0838017F4802F00F017
:1028A000838046F4004614F0080F07D01BF0100F89
:1028B00004D046F400762B681022DA6014F0040F7E
:1028C00002D01BF0080F79D114F0020F04D02B684E
:1028D000DB6813F0030F78D114F0400F07D01AF023
:1028E000100F04D046F480662B6810221A6114F091
:1028F000200F02D01AF0080F6BD114F0100F04D083
:102900002B681B6913F0030F6AD114F4003F02D047
:1029100018F0100F68D114F4803F02D018F0080F9F
:1029200069D114F4004F7AD018F0040F74D014F465
:10293000807F04D019F0010F01D046F0010614F495
:10294000007F04D019F0020F01D046F0020614F403
:10295000806F04D019F0040F01D046F0040614F47F
:10296000006F59D019F0700956D0B9F1400F65D0F9
:1029700058D8B9F1200F5ED0B9F1300F42D146F0EE
:10298000200644E0284625F0F0FE7BE717F4006FB0
:1029900002D046F4804675E7284625F0E9FE71E747
:1029A000284625F0E3FE7EE717F4002F02D046F418
:1029B000803678E7284625F0DCFE74E72B6808228D
:1029C000DA60284625F0E2FE7EE7284625F0D2FEB2
:1029D00082E72B6808221A61284625F0D9FE8CE789
:1029E000284625F0D4FE90E72B6810225A6028462E
:1029F00025F0CFFE8FE72B6808225A60284625F085
:102A0000C9FE8EE7B9F1100F01D146F008062A6819
:102A1000936923F0700393612B6804225A609EB976
:102A2000BDE8F88FB9F1500F0BD0B9F1600FEED1BE
:102A300046F48076EBE746F01006E8E746F04006FD
:102A4000E5E746F08006E2E76B6A1E436E622846C1
:102A500025F0A1FEE4E7406A704790F82030DBB231
:102A6000012B0AD090F82030DBB2022B05D0436A4C
:102A700043F48023436201207047002343621846D9
:102A800070470000002301330C4A934211D80269B9
:102A9000002AF8DA036943F00103036100230133DC
:102AA000064A934207D8026912F0010FF7D10020BD
:102AB0007047032070470320704700BF400D03009C
:102AC00084B010B5044603A880E80E00089B012BD3
:102AD00020D1A36B23F48033A363E36823F484033E
:102AE00023F04003E360E36823F44013E3600F9BAB
:102AF000012B0AD02046FFF7C5FF069B012B14D0FF
:102B00000020BDE8104004B07047E36843F4801330
:102B1000E360EFE7E36843F04003E3602046FFF73C
:102B2000B1FF4FF48033A363E7E7A36843F00603E4
:102B3000A360A36843F02003A360E1E7836843F048
:102B40000103836000207047836823F001038360E2
:102B50000020704708B5C36823F0C043C360012953
:102B600005D041B9C36843F08043C36003E0C36844
:102B700043F00053C360322004F052FB002008BD34
:102B8000890141F02001016100230133054A93428C
:102B900005D8026912F0200FF7D1002070470320FA
:102BA000704700BF400D0300102303610023013371
:102BB000054A934205D8026912F0100FF7D10020A0
:102BC00070470320704700BF400D0300D0F8003865
:102BD0001943C0F8001800207047000084B070B599
:102BE000044605A880E80E000F9EB6B9A36B43F417
:102BF0000013A3630023C4F8003E04F50065D4F875
:102C00000038C4F800380A9B012B10D1079B4BB940
:102C100000212046FFF7DAFF0DE0A36B43F4002309
:102C2000A363E7E701212046FFF7D0FF03E003217C
:102C30002046FFF7CBFF10212046FFF7A1FF2046DB
:102C4000FFF7B2FF00232B616B614FF0FF32AA61E7
:102C5000EB6108E04FF09040C2F8000900220A61E1
:102C6000FF228A600133059999420BD904EB431284
:102C700002F51061D2F800090028EBDB0020C2F851
:102C80000009EBE7002308E04FF0904CC2F800CBBE
:102C900000220261FF228260013399420DD904EBC8
:102CA000431202F53060D2F800CBBCF1000FEBDB31
:102CB0004FF0000CC2F800CBEAE72B6923F48073D5
:102CC0002B61089B012B1AD00022A2616FF0804279
:102CD00062611BB9A36943F01003A361A269104BA1
:102CE0001343A3610B9B1BB1A36943F00803A361CA
:102CF000012E0ED00020BDE8704004B07047094A94
:102D00002A632A6B42F4803242F003022A632A6B60
:102D1000DAE7A36943F0804343F00403A361E9E7E2
:102D200000383C8000018000D0F8083800F50060D1
:102D300013F0060F10D0836803F00603022B0DD0AA
:102D4000836803F00603062B0AD0836803F00603AA
:102D5000042B07D0002070470020704703207047E5
:102D6000032070470220704700B54B78012B24D018
:102D7000D0F81C3891F800E0012202FA0EF243EA82
:102D80000243C0F81C380B7800EB4310D0F8003B2E
:102D900013F4004F0ED1D0F8003B8A68C2F30A0248
:102DA000C97842EA8142134343F0805343F400431D
:102DB000C0F8003B00205DF804FBD0F81C2891F817
:102DC00000E003FA0EF39BB21343C0F81C3891F8ED
:102DD00000C000EB4C10D0F8003913F4004FE9D1DB
:102DE000D0F800398A68C2F30A02C97842EA8142FF
:102DF00042EA8C52134343F0805343F40043C0F83B
:102E00000039D7E738B504460D464B78012B35D04D
:102E10000B7800EB4313D3F8002B22F40042C3F8E5
:102E2000002B0B7800EB43134FF00062C3F8002B2C
:102E30000B7800EB43134FF08042C3F8002B0022C5
:102E400001322B4B9A4250D82B7804EB431303F5F5
:102E500030639B6813F0100FF2D1D4F8043843F4B8
:102E60008063C4F80438D4F81C38297801228A40D9
:102E700023EA0243C4F81C38002038BD0B7800EB6D
:102E80004313D3F8002922F40042C3F800290B7839
:102E900000EB43134FF00062C3F800290B7800EBFE
:102EA00043134FF08042C3F8002900220132104B37
:102EB0009A4218D82B7804EB431303F510639B68F0
:102EC00013F0804FF2D110212046FFF759FED4F8BD
:102ED0001C28297801238B409BB222EA0303C4F803
:102EE0001C380020C9E70320C7E70320C5E700BF5F
:102EF000400D030030B44B78012B3AD00B7800EB37
:102F00004313D3F8104BE40CE404C3F8104B0B78D4
:102F100000EB4313D3F8104B24F0FF5424F4C014F7
:102F2000C3F8104B4B690BB18B684B610B7800EB0E
:102F30004313D3F8104B44F40024C3F8104B0B7820
:102F400000EB4313D3F8104B8D68C5F3120C44EA21
:102F50000C04C3F8104B012A77D00B7800EB431018
:102F6000D0F8003B43F00443C0F8003B002030BCE5
:102F700070474B699BBB0B7800EB4313D3F81049A8
:102F800024F0FF5424F4C014C3F810490B7800EB6C
:102F90004313D3F8104944F40024C3F810490B78C4
:102FA00000EB4313D3F81049E40CE404C3F81049D0
:102FB0000B7800EB4313D3F8004944F00444C3F802
:102FC0000049012A3AD04B69002BCFD0D0F83438D1
:102FD000097801228A401343C0F83438C6E70B78D9
:102FE00000EB4313D3F81049E40CE404C3F8104990
:102FF0000B7800EB4313D3F8104924F0FF5424F46A
:10300000C014C3F810494C698B689C4200D94B61CD
:103010000B7800EB4313D3F8104944F40024C3F8B1
:1030200010490B7800EB4313D3F810494D69C5F3F1
:10303000120C44EA0C04C3F81049B9E70B7800EB12
:1030400043100B69C0F8143990E7CA680B7800EB9D
:103050004313C3F8142B80E710B59DF8084084B9DA
:1030600003334FEA930E4FF0000C08E000EB0233FD
:1030700003F5805351F8044B1C600CF1010CF4452E
:10308000F4D3002010BD000070B582B04B78012B46
:103090003ED00B7800EB4313D3F8104BE40CE40460
:1030A000C3F8104B0B7800EB4313D3F8104B24F00C
:1030B000FF5424F4C014C3F8104B4B69002B40F0AC
:1030C000D3800B7800EB4313D3F8104B8D68C5F316
:1030D00012052C43C3F8104B0B7800EB4313D3F8C5
:1030E000104B44F40024C3F8104B012A00F0DC809C
:1030F000CB78012B00F0DF800B7800EB4310D0F889
:10310000003B43F00443C0F8003B002002B070BD18
:103110004B696BBB0B7800EB4313D3F8104924F0D9
:10312000FF5424F4C014C3F810490B7800EB431388
:10313000D3F8104944F40024C3F810490B7800EB8D
:103140004313D3F81049E40CE404C3F81049012AEE
:1031500054D0CB78012B57D04B69002B54D0D0F8EA
:1031600034380E780124B4402343C0F834384BE09F
:103170000B7800EB4313D3F81049E40CE404C3F8D4
:1031800010490B7800EB4313D3F8104924F0FF5497
:1031900024F4C014C3F810490C7800EB4414D4F89C
:1031A00010594B698E683344013BB3FBF6F34E4E26
:1031B00006EAC3432B43C4F810390B7800EB4313E2
:1031C000D3F810494D69C5F312052C43C3F81049D3
:1031D000CB78012BBBD10B7800EB4313D3F810490C
:1031E00024F0C044C3F810490B7800EB4313D3F824
:1031F000104944F00054C3F81049A8E70B7800EBDD
:1032000043130C69C3F81449CB78012B13D00B7806
:1032100000EB4313D3F8004944F00444C3F80049D9
:10322000CB78012B7FF471AF00928B8A0A78C96842
:10323000FFF712FF69E7D0F8083813F4807F09D14F
:103240000B7800EB4313D3F8004944F00054C3F863
:103250000049DCE70B7800EB4313D3F8004944F056
:103260008054C3F80049D2E78D682B44013BB3FB7F
:10327000F5F30C7800EB4414D4F8105B1A4E06EA10
:10328000C34C45EA0C05C4F8105B0C7800EB441401
:10329000D4F8105B9BB28E6806FB03F3C3F31203F2
:1032A0002B43C4F8103B20E7CA680B7800EB4313AC
:1032B000C3F8142B1CE7D0F8083813F4807F09D129
:1032C0000B7800EB4313D3F8002B42F00052C3F805
:1032D000002B11E70B7800EB4313D3F8002B42F0DF
:1032E0008052C3F8002B07E70000F81F8446084609
:1032F000D11C8908002305E00CF58052126840F8C3
:10330000042B01338B42F7D370474B78012B17D036
:103310000B7800EB4313D3F8002B002A05DBD3F81E
:10332000002B22F08042C3F8002B0B7800EB4310F7
:10333000D0F8003B43F40013C0F8003B0020704776
:103340000B7800EB4313D3F80029002A05DBD3F8F0
:10335000002922F08042C3F800290B7800EB4310CB
:10336000D0F8003943F40013C0F80039E6E74B7891
:10337000012B0FD00B7800EB4313D3F8002B22F472
:103380000012C3F8002BCB78023BDBB2012B19D91A
:10339000002070470B7800EB4313D3F8002922F488
:1033A0000012C3F80029CB78023BDBB2012BEFD827
:1033B0000B7800EB4310D0F8003943F08053C0F88D
:1033C0000039E5E70B7800EB4310D0F8003B43F001
:1033D0008053C0F8003BDBE7D0F8003823F4FE63ED
:1033E000C0F80038D0F80038090101F4FE61194333
:1033F000C0F800180020704708B5D0F8043823F052
:103400000203C0F80438032003F00AFF002008BDBF
:1034100008B5D0F8043843F00203C0F8043803209C
:1034200003F0FEFE002008BD42698069104070472D
:10343000D0F8183800F50060C0691840000C7047DB
:10344000D0F8183800F50060C069184080B27047A5
:1034500000EB4111D1F8082B00F5006040691040E5
:10346000704710B4D0F81048D0F83438CB40DB01A6
:10347000DBB2234300EB411000F510608068184078
:103480005DF8044B7047406900F001007047D0F8C8
:10349000003923F4FF6323F00703C0F8003900F577
:1034A00000639A6802F00602042A05D05A6842F4C2
:1034B00080725A6000207047D0F8002942F0030261
:1034C000C0F80029F2E710B40024C0F8104BD0F87F
:1034D000104B44F40024C0F8104BD0F8104B44F0CB
:1034E0001804C0F8104BD0F8104B44F0C044C0F89A
:1034F000104B012903D000205DF8044B7047C0F841
:10350000142B4FF08023C0F8003BF4E700B589B0DE
:1035100070230193012302930023039304930593E3
:10352000069307930C2201A907F090FE09B05DF8FD
:1035300004FB000000B58DB01748184B0360002352
:10354000436083604FF6FF72C260036103220392FF
:10355000049301210591069304220792089309918F
:103560000A930B9203A907F051FD50B90023019370
:10357000029301A9084800F096FB38B90DB05DF838
:1035800004FBEA21064801F06BF9EFE7F12104485A
:1035900001F066F9F2E700BF1407002000040040C4
:1035A00060F4020800B58DB01848194B0360002381
:1035B000436083604FF6FF72C2600361032203928F
:1035C000049301210591069304220792089309911F
:1035D0000A930B9203A907F019FD50B90023019338
:1035E000029301A9094800F05EFB40B90DB05DF8F7
:1035F00004FB40F20B11074801F032F9EEE74FF4FB
:103600008971044801F02CF9F0E700BF5007002051
:103610000008004060F4020800B587B02148224B42
:1036200003600023436083604FF0FF32C260036198
:1036300007F0D2FCF0B900230493059304A91948BC
:1036400000F031FBE0B90A2300930123019300232A
:1036500002930F23039308226946124807F064FD82
:10366000A0B90C2269460F4807F05EFDA0B907B06B
:103670005DF804FB40F223110C4801F0F1F8DAE7A1
:103680004FF49571094801F0EBF8DCE740F2331193
:10369000064801F0E5F8E4E74FF49C71034801F0B7
:1036A000DFF8E4E78C070020000C004060F402081B
:1036B00008B50A480A4B036000234360836042F662
:1036C0000312C260036107F039FC00B908BD40F283
:1036D0008511044801F0C4F8F8E700BF9C060020FB
:1036E000001C004060F4020800B583B00368184A6B
:1036F000934205D0174A934216D003B05DF804FBFD
:1037000000210091144B5A6C42F001025A645B6C28
:1037100003F001030093009B0A461920FEF750FCBA
:103720001920FEF785FCE8E7002101910A4B1A6C8D
:1037300042F080021A641B6C03F080030193019B2A
:103740000A462C20FEF73CFC2C20FEF771FCD4E747
:1037500000000140001C00400038024010B582B05B
:103760000368B3F1804F04D0174A93420ED002B0E1
:1037700010BD00230093154B1A6C42F001021A642D
:103780001B6C03F001030093009BF0E700240194FD
:103790000E4B5A6C42F002025A645B6C03F0020357
:1037A0000193019B224621462C20FEF709FC2C2088
:1037B000FEF73EFC224621462D20FEF701FC2D207F
:1037C000FEF736FCD3E700BF00040140003802409A
:1037D00000B589B003681D4A934205D01C4A934244
:1037E0001BD009B05DF804FB0023019302F50D32F4
:1037F000116C41F002011164126C02F0020201929C
:10380000019A3022039202220492059306930792B2
:1038100003A9104808F0E6F8E3E70023029302F555
:103820000C32116C41F004011164126C02F00402BC
:103830000292029AC02203920222049205930693F6
:10384000079203A9034808F0CDF8CAE70004004036
:1038500000080040000402400268144B9A4200D065
:10386000704710B586B00024009403F50B331A6C32
:1038700042F008021A641B6C03F008030093009BDB
:103880000C2301930223029303940494059301A94A
:10389000074808F0A7F8224605213220FEF790FBE2
:1038A0003220FEF7C5FB06B010BD00BF000C004083
:1038B0000000024070B586B003682B4A934207D0DF
:1038C000B3F1804F1ED0294A93422AD006B070BD72
:1038D0004FF460430193022602960024039404945B
:1038E0000125059501A9224808F07CF84FF4E06312
:1038F0000193029603940494059501A91D4808F0CC
:1039000071F8E3E74FF4406301930223029300232D
:10391000039304930123059301A9154808F062F865
:10392000D4E7802301930226029600240394049492
:103930000325059501A90F4808F054F80195029652
:1039400003940494059501A9094808F04BF84FF435
:10395000E0730193029603940494059501A9064827
:1039600008F040F8B2E700BF000001400004014049
:1039700000040240000002400008024000B595B07B
:103980004F48504B0360002343606022826040F642
:10399000AC52C26003610223436107F0CFFA0028F2
:1039A0005CD14FF48053109310A9454807F020F9DB
:1039B000002858D1424807F0F5FA002858D140486D
:1039C00007F0D6FA002858D120230E9300230F9336
:1039D0000EA93B4800F067F9002853D170230793E4
:1039E0000022089209920A920B920C920D9207A95A
:1039F000334807F05AFC002849D1042207A930486F
:103A000007F053FC002847D1082207A92C4807F0EB
:103A10004CFC002845D1002307930C2207A9284815
:103A200007F014FC002841D14FF4006300934FF4D9
:103A300080630193002302931422039204934FF4B2
:103A400000520592069369461D4800F055F990BB57
:103A50001B48FFF72FFF15B05DF804FB65211A48DE
:103A600000F0FEFE9DE76B21174800F0F9FEA1E78C
:103A70007021154800F0F4FEA1E77521124800F00E
:103A8000EFFEA1E77C21104800F0EAFEA6E78821BE
:103A90000D4800F0E5FEB0E78D210B4800F0E0FE98
:103AA000B2E79221084800F0DBFEB4E7982106480F
:103AB00000F0D6FEB8E7A421034800F0D1FEC7E726
:103AC000600600200000014060F4020800B58BB0E1
:103AD00024484FF0804303600023436060228260EB
:103AE0004FF48052C260036107F05CFA28BB0023E8
:103AF0000893099308A91B4800F0D5F810BB702360
:103B0000019300230293022203920593082201A944
:103B1000144807F0CAFBD0B941F201030293002315
:103B200003930C2201A90F4807F0BFFBA0B90D4871
:103B3000FFF7C0FE0BB05DF804FBB7210A4800F0A8
:103B40008FFED4E7BE21084800F08AFED7E7C721E0
:103B5000054800F085FEDFE7CE21034800F080FE37
:103B6000E5E700BFD806002060F4020800B591B078
:103B70003A483B4B0360002343606022826040F67A
:103B8000AC52C26003610223436107F00BFA0028C4
:103B90003FD120230E9300230F930EA92F4800F04E
:103BA00082F800283BD170230793002208920992E3
:103BB0000A920B920C920D9207A9284807F075FB08
:103BC000002832D1042207A9244807F06EFB002800
:103BD00031D1082207A9214807F067FB88BB4FF4C1
:103BE000006300934FF48063019300230293142237
:103BF000039204934FF400520592069369461748C6
:103C000000F07AF818BB1548FFF754FE11B05DF8C4
:103C100004FB40F24B11134800F022FEB9E74FF4C9
:103C2000A971104800F01CFEBDE74FF4AF710D48BC
:103C300000F016FEC6E740F263110A4800F010FEDD
:103C4000C7E74FF4B471074800F00AFEC7E74FF426
:103C5000BA71044800F004FED5E700BFC807002091
:103C60000004014060F40208042303FA01FC036A23
:103C700023EA0C030362036A02FA01F10B430362B5
:103C8000704710B5044604220068FFF7EDFF226874
:103C9000536C43F4004353642268136843F00103F8
:103CA0001360002010BD90F83830012B22D030B4C2
:103CB000012280F83820022380F8393004686368D4
:103CC00023F070036360046863680D682B436360CE
:103CD0000468A36823F08003A3600468A3684968AC
:103CE0000B43A36080F83920002380F83830184651
:103CF00030BC70470220704790F83830012B25D037
:103D0000012380F83830CB6823F440738A6813436A
:103D100023F480634A68134323F400630A6813435F
:103D200023F480530A69134323F400534A6913436D
:103D300023F480438A69134323F400431343026846
:103D40005364002380F838301846704702207047CB
:103D50007047704710B40468606A31B940EA0240A5
:103D6000A06200205DF8044B70478C46A36A00EB0C
:103D70001340002308E003F1400104EB810149688E
:103D800000EB11400133DBB20CF1FF318B42F2DB6F
:103D900040EA02400CF13F0104EB81014860E0E79A
:103DA000036859620020704710B582B00024009467
:103DB0001A4B1A6B42F400121A631A6B02F40012C7
:103DC0000092009A01941A6B42F480021A631B6BF2
:103DD00003F480030193019B224605210B20FEF78B
:103DE000EFF80B20FEF724F9224605210D20FEF7FF
:103DF000E7F80D20FEF71CF9224605210F20FEF7FB
:103E0000DFF80F20FEF714F9224605211020FEF7F7
:103E1000D7F81020FEF70CF902B010BD00380240B0
:103E20002DE9F0410646884617461D463CE02DB177
:103E300003F0F0F9069BC01AA84235D332685368E4
:103E400023F0E00353607368B3F5827F0BD0B36A4D
:103E5000B3F5005F14D0012386F85130002386F8B3
:103E60005030032029E0B368B3F5004F02D0B3F51A
:103E7000806FECD13268136823F040031360E6E7EB
:103E80003268136823F400531B041B0C1360326860
:103E9000136843F400531360DDE74FF0010CBC4599
:103EA0000AD0B5F1FF3FC2D13468A46838EA0403F0
:103EB000F3D04FF0000CF2E70020BDE8F08110B520
:103EC00082B004460B46009200228021FFF7A8FF33
:103ED00008B902B010BD636D43F020036365032091
:103EE000F7E700283BD010B504460023836290F822
:103EF0005130002B2ED0022384F8513022681368F1
:103F000023F0400313606368A2681343E26813431D
:103F10002269134362691343A26902F400721343D6
:103F2000E2691343226A1343A16A22680B431360B8
:103F3000638B03F00403616A22680B4353602268B9
:103F4000D36923F40063D36100206065012384F802
:103F5000513010BD80F8503000F00EFFCBE701204B
:103F6000704790B110B50446022380F851300268C2
:103F7000136823F04003136000F090FF0020606599
:103F800084F8510084F8500010BD012070472DE9DD
:103F9000F04385B01D4690F85030012B00F0C980E9
:103FA00004460E469146012380F8503003F032F962
:103FB000804694F85170FFB2012F40F0AF80002E80
:103FC00000F0AD80B9F1000F00F0A980032384F860
:103FD0005130002363652663A4F83490A4F836902A
:103FE000A363A387E38763642364A368B3F5004FE7
:103FF0001CD023681A6812F0400F03D11A6842F0EF
:1040000040021A60E368B3F5006F15D063681BB116
:10401000E38E9BB2012B41D1236816F8012B1A7352
:10402000E38E9BB2013B9BB2E38637E022681368C4
:1040300043F480431360DCE763681BB1E38E9BB2FB
:10404000012B0DD1236836F8022BDA60E38E9BB288
:10405000013B9BB2E38603E0D5B1B5F1FF3F11D13F
:10406000E38E9BB2002B37D023689A6812F0020FC0
:10407000F2D036F8022BDA60E38E9BB2013B9BB2A2
:10408000E386EDE703F0C6F8A0EB0800A842E7D30B
:10409000032744E0F5B1B5F1FF3F15D1E28E92B2AE
:1040A000D2B123689A6812F0020FF3D016F8012BF0
:1040B0001A73B4F836C01FFA8CFC0CF1FF3C1FFADF
:1040C0008CFCA4F836C0E9E703F0A4F8A0EB0800E4
:1040D000A842E3D3032722E0CDF800802B4601223B
:1040E00002212046FFF79CFE08B1032717E0424655
:1040F00029462046FFF7E3FE034660B9A26832B9BD
:1041000003922268D168039192680392039A626DC8
:104110002AB91F4603E02023636500E0022701233C
:1041200084F85130002384F85030384605B0BDE89B
:10413000F0830227F9E72DE9F04385B099460C9FFB
:1041400090F85030012B00F0148104460E461546BD
:10415000012380F8503003F05DF8804694F8513028
:10416000DBB26268012B0AD0B2F5827F40F0ED80AD
:10417000A268002A40F0F380042B40F0F280002E69
:1041800000F0F180002D00F0F080B9F1000F00F098
:10419000EE8094F85130DBB2012B2CD00023636504
:1041A000A563A4F83E90A4F83C902663A4F836904A
:1041B000A4F834902364636423681A6812F0400FF3
:1041C00003D11A6842F040021A60E368B3F5006F49
:1041D00015D063681BB1E38E9BB2012B08D1236815
:1041E00016F8012B1A73E38E9BB2013B9BB2E38658
:1041F0004FF0010965E0052384F85130CEE763688C
:104200001BB1E38E9BB2012B08D1236836F8022B39
:10421000DA60E38E9BB2013B9BB2E3864FF001096B
:1042200014E0E38F9BB273B123689A6812F0010F18
:1042300009D0DB6825F8023BE38F9BB2013B9BB2C0
:10424000E3874FF00109B7F1FF3F1DD1E38E9BB229
:104250001BB9E38F9BB2002B58D0B9F1000FE0D00F
:10426000E38E9BB2002BDCD023689A6812F0020F19
:10427000D7D036F8022BDA60E38E9BB2013B9BB2BB
:10428000E3864FF00009CCE702F0C4FFA0EB080082
:10429000B842DBD3032059E0E38F9BB273B12368AC
:1042A0009A6812F0010F09D0DB6805F8013BE38F33
:1042B0009BB2013B9BB2E3874FF00109B7F1FF3F8F
:1042C0001CD1E38E9BB213B9E38F9BB2F3B1B9F16A
:1042D000000FE1D0E38E9BB2002BDDD023689A68FB
:1042E00012F0020FD8D016F8012B1A73E38E9BB28E
:1042F000013B9BB2E3864FF00009CDE702F08AFF55
:10430000A0EB0800B842DCD303201FE0CDF800800A
:104310003B46012202212046FFF782FD08B103201F
:1043200014E0424639462046FFF7C9FD48B9A36864
:1043300063B903932368DA6803929B680393039B32
:1043400004E020236365012000E00220012384F8BB
:104350005130002384F8503005B0BDE8F0830220CE
:10436000F4E70220F2E70120F0E70120EEE7012068
:10437000ECE70220F0E7000038B5044690F8500062
:10438000012800F08380012084F8500094F8510047
:10439000C0B26568012807D0B5F5827F67D1A568EE
:1043A000002D69D1042869D1002969D0002A69D07B
:1043B000002B69D094F85100C0B201284CD00020E5
:1043C00060652163A386E386A263A387E3872064F5
:1043D000606494F85130DBB2042B41D0E36C2C4A7A
:1043E0001A64E36C2B4ADA63E36C2B4ADA64E36CFD
:1043F00000251D652168E38F9BB2A26B0C31E06C38
:1044000001F029FA2268536843F001035360A36C5A
:104410001D64A36CDD63A36CDD64A36C1D65226861
:10442000E38E9BB20C32216BA06C01F014FA23686E
:104430001A6812F0400F03D11A6842F040021A6065
:104440002268536843F0200353602268536843F0A6
:104450000203536000200BE0052084F85100AEE712
:10446000E36C0E4A1A64E36C0D4ADA63BCE702207F
:10447000002384F8503038BD0220F9E70220F7E726
:104480000120F5E70120F3E70120F1E70220F2E740
:10449000B544000839450008C1440008A944000893
:1044A000E34400087047704708B5806BFFF7FBFFD7
:1044B00008BD704708B5806BFFF7FBFF08BD70476C
:1044C00008B5806B0268536823F003035360436DA3
:1044D00043F010034365012380F85130FFF7EFFFED
:1044E00008BD08B50346806B1B681B6813F4807F0A
:1044F0000FD10268536823F0030353604368B3F598
:10450000827F09D00023C387012380F85130436D97
:104510007BB9FFF7C7FF08BD8368B3F5004F02D032
:10452000B3F5806FEED10268136823F04003136087
:10453000E8E7FFF7C4FFEEE738B50546846B02F005
:1045400069FE2B681B6813F4807F16D10246642134
:104550002046FFF7B4FC18B1636D43F02003636598
:104560002268536823F0030353600023E386E38744
:10457000012384F85130636D1BB9204609F002FF16
:1045800038BD2046FFF79BFFFAE7000010B584B066
:10459000044602685168936803F0410001285CD02A
:1045A00013F0020F02D011F0800F5DD113F4B07F31
:1045B0005DD011F0200F5AD013F0400F0FD094F8B7
:1045C0005100C0B2032854D0606D40F00400606513
:1045D00000200090D068009090680090009813F040
:1045E000200F0CD0606D40F001006065002002904B
:1045F00090680290106820F040001060029A13F456
:10460000807F09D0636D43F0080363650023039343
:1046100023689B680393039B636D43B322685368CD
:1046200023F0E0035360012384F8513011F0030FAD
:1046300027D02268536823F003035360E36C23B14F
:10464000124A1A65E06C01F08AF9A36C7BB10F4A3B
:104650001A65A06C01F083F909E011F0400F9FD0BA
:10466000236C2046984702E0636C2046984704B0CC
:1046700010BD00230193D368019393680193019BBC
:10468000F5E72046FFF71BFFF1E700BF9146000862
:1046900008B5806B0023C387C386FFF710FF08BDF2
:1046A00008B54FF0FF31064B186804F09FFD002855
:1046B000F7D1044801F0BCFC4320FDF7B9FCF0E75A
:1046C000100800202008002008B503F069F80EF05B
:1046D000A7FE024B186805F0FFFB08BD0408002088
:1046E00010B586B00DF1040C074C0FCCACE80F00F0
:1046F0002368CCF80030002101A804F0E4FC034B4F
:10470000186006B010BD00BF98F302081C08002016
:1047100030B58BB000240994012109A804F052FDA2
:104720001E4B1860214604F061FD0894012108A881
:1047300004F048FD1A4B18600794012107A804F003
:1047400041FD184B1860214604F050FD06940121EC
:1047500006A804F037FD144B18600594012105A844
:1047600004F030FD114B1860214604F03FFDFFF7C7
:10477000B7FF0FF05DF90EF0F5FBEC460C4D0FCDD9
:10478000ACE80F002B68CCF800302146684604F0F6
:104790009AFC084B18600BB030BD00BF1008002019
:1047A0000C08002014080020180800200808002029
:1047B000ACF302080408002008B51A4B1A681A4B1B
:1047C0009A4212D0174B1A68184B9A420FD0154BC9
:1047D0001B682A2B15D108BD00BF0133144A934230
:1047E000FAD3104B114A1A60ECE70023F6E70D4BA1
:1047F000104A1A60104B83F30888104B5B68984787
:10480000E5E7084B2A221A60BFF34F8F0C49CA68AC
:1048100002F4E0620B4B1343CB60BFF34F8F00BF3A
:10482000FDE700BF0406002075FEADDEEFBEADDE85
:1048300000A86100EDFEFECA000002200000FF1F7C
:1048400000ED00E00400FA0508B50268034B9A4247
:1048500000D008BD02F0D2FCFBE700BF0020004002
:10486000FEE7000000B595B0002101912C4B1A6CB9
:1048700042F080521A641B6C03F080530193019B39
:104880000291284B1A6842F480421A601B6803F4B4
:1048900080430293029B092308934FF480330993CA
:1048A00001230D9302230E934FF480020F920422F2
:1048B0001092A822119212930723139308A802F0D2
:1048C000FBFF20BB0F2303930223049300230593D4
:1048D0004FF4A05306934FF480530793052103A888
:1048E00003F020FAB8B903F0CBFA0F4BA3FB00306A
:1048F0008009FDF7B5FB0420FDF7C6FB00220F2160
:104900004FF0FF30FDF75CFB15B05DF804FBFC21B8
:104910000648FFF7A5FF4FF485710448FFF7A0FF95
:104920000038024000700040D34D621098F4020835
:1049300010B5274AD2F8103AD2F8181A0B44180CBE
:10494000B2F8161A41EA03410346224A1160506048
:1049500000220CE0C3F303301F4C14F800C01F48C2
:1049600000F802C01B0143EA1173090101320B2A4E
:10497000F0D91A4B00221A7302F026FCFFF772FFDF
:1049800004F0C0FFFFF710FA01F068FF01F0B8FF74
:10499000FEF7F4FFFFF7EAF8FEF7CCFDFEF702FEA4
:1049A00000F0C2F902F000F8FFF790F800F03CFCCC
:1049B000FEF732FEFEF77CFE0948FEF7A7FD094828
:1049C000FEF7A4FDFFF7A4FE04F06EFBFEE700BFB8
:1049D0000070FF1F68CE0020ACF4020870CE0020EB
:1049E00060060020C80700200368B3F1A04F00D084
:1049F000704710B586B04FF4C05301930223029361
:104A000000240394032304930A23059301A90E4869
:104A100006F0E8FF0D4B5A6B42F080025A63009497
:104A20005A6C42F480425A645B6C03F480430093F6
:104A3000009B224605214320FDF7C2FA4320FDF7E3
:104A4000F7FA06B010BD00BF000002400038024077
:104A5000F8B50446D0F8EC5305F5027700F56F760B
:104A60003146384602F0BAF895F8083203F0600390
:104A7000402B03D195F80932502B05D03146D4F89C
:104A8000EC0300F0CBFCF8BD0123C5F8F431B5F818
:104A90000E32C5F8F831D5F814329B6839462846ED
:104AA0009847B5F80E32002BEDD10028EBD12846FF
:104AB000FDF726FBE7E708B5C1EBC10300EB830375
:104AC000D3F80422D0F8EC0300F0D5FC08BD08B5FB
:104AD000C1EBC10300EB83035A6CD0F8EC0300F088
:104AE00000FD08BD08B5D0F8EC0300F084FD08BD5A
:104AF00010B50446C3684BB10121D4F8EC0300F0B3
:104B000068FDD4F8EC0300F045FD10BD0021F4E78A
:104B100010B50446D0F8EC0300F05EFD2268D2F830
:104B2000003E43F00103C2F8003E236A23B1034A6A
:104B3000136943F00603136110BD00BF00ED00E0F0
:104B400008B5D0F8EC0300F050FD08BD08B5D0F86A
:104B5000EC0300F060FD08BD08B5D0F8EC0300F0F0
:104B600058FD08BD08B5D0F8EC0300F056FD08BDAF
:104B700008B5D0F8EC0300F052FD08BD02780AB188
:104B80000020704710B503461948C0F8EC33C3F84D
:104B900020024FF0A0430360062343600222C2605C
:104BA0000023036143618261C36103624362C362A4
:104BB000036301F0B0F9A8B90D4C80212046FFF73E
:104BC000EFF8402200212046FFF7C4F840220121DF
:104BD0002046FFF7BFF8402203212046FFF7BAF82E
:104BE000002010BD4FF4AC710248FFF739FEE3E737
:104BF00020080020C0F4020808B5D0F8200201F017
:104C000002FA022805D8DFE800F0050402000120BE
:104C100000E0022008BD08B594461A466346D0F865
:104C2000200201F0F1FC022805D8DFE800F00504BD
:104C30000200012000E0022008BD08B5D0F82002E3
:104C400001F01EFD022805D8DFE800F0050402008F
:104C5000012000E0022008BD08B5D0F8200201F0D4
:104C60009FFD022805D8DFE800F0050402000120BE
:104C700000E0022008BD08B5D0F8200201F0C3FD15
:104C8000022805D8DFE800F005040200012000E05A
:104C9000022008BDD0F8203211F0800F08D101F0B9
:104CA0007F01C1EBC10103EB810191F8FA0170476B
:104CB00001F07F01C1EBC10103EB810191F83A00E2
:104CC000704708B5D0F8200201F08CFC022805D806
:104CD000DFE800F005040200012000E0022008BD2A
:104CE00008B5D0F8200201F02DFD022805D8DFE834
:104CF00000F005040200012000E0022008BD08B514
:104D0000D0F8200201F0E7FC022805D8DFE800F027
:104D100005040200012000E0022008BD08B5D0F81B
:104D2000200201F006FD08BD08B51048104B0360D5
:104D30004FF482734360002383604FF40062C260CB
:104D40000361012242614FF4007282611822C26144
:104D50000362436283620A23C362FFF7C2F800B9A9
:104D600008BD52210348FFF77BFDF9E7D00C002076
:104D7000003C0040DCF402080268414B9A4200D03B
:104D8000704730B587B004460025009503F5FE3323
:104D90001A6C42F400421A641B6C03F40043009343
:104DA000009B4FF4E05301930223029301230393EA
:104DB000032304930623059301A9324806F012FE4B
:104DC000314B324A1A605D6040229A60DD604FF4D8
:104DD00080621A61E368002B37D12B4B5D619D61C6
:104DE00029480023C3614FF480320262436200F01D
:104DF000A1FC002831D1244BA3649C63244B254A99
:104E00001A6000225A609A60DA604FF480621A6178
:104E1000E3683BBB1E4B00225A619A611C48002389
:104E2000C3614FF480320262436200F083FC08BB2E
:104E3000174BE3649C63002205213320FDF7C0F883
:104E40003320FDF7F5F807B030BD0F4B4FF400628B
:104E50005A614FF400529A61C2E784210E48FFF76D
:104E6000FFFCC8E70A4B4FF400625A614FF400524E
:104E70009A61D3E79B210848FFF7F2FCD8E700BF0F
:104E8000003C004000080240700C00208860024096
:104E9000100C002010600240DCF4020802680D4B88
:104EA0009A4200D0704710B504460B4A136C23F4A5
:104EB000004313644FF4E051084806F079FEA06CFB
:104EC00000F09EFCE06C00F09BFC3320FDF7BCF88A
:104ED00010BD00BF003C0040003802400008024006
:104EE0000B4B1B68B3F1FF3F08D04FF0500383F327
:104EF0001188BFF36F8FBFF34F8FFEE74FF0500362
:104F000083F31188BFF36F8FBFF34F8FFEE700BFAE
:104F10000000002006480068006880F3088862B638
:104F200061B6BFF34F8FBFF36F8F00DF00BF00008C
:104F300008ED00E0DFF80C00016841F47001016049
:104F40007047000088ED00E04FF0807340F8043CAB
:104F500021F0010140F8081C054B40F80C3C40F8DA
:104F6000202C6FF0020340F8243C4438704700BF07
:104F7000E14E0008000000000000000000000000FA
:104F8000074B19680868B0E8F04F80F30988BFF351
:104F90006F8F4FF0000080F311887047AFF30080EF
:104FA0009C1500204FF0500383F31188BFF36F8FDF
:104FB000BFF34F8F0B4A136801331360012B00D0EE
:104FC00070474FF0E023D3F8043D13F0FF0FF7D004
:104FD0004FF0500383F31188BFF36F8FBFF34F8FF0
:104FE000FEE700BF00000020094B1B6843B94FF0EB
:104FF000500383F31188BFF36F8FBFF34F8FFEE72A
:10500000013B034A13600BB983F31188704700BF5B
:105010000000002000000000000000000000000070
:10502000EFF30980BFF36F8F154B1A681EF0100F56
:1050300008BF20ED108A20E9F04F10604DF8043DC4
:105040004FF0500080F31188BFF34F8FBFF36F8F85
:1050500005F07AF94FF0000080F3118808BC196858
:105060000868B0E8F04F1EF0100F08BFB0EC108ACF
:1050700080F30988BFF36F8F704700BFAFF30080E4
:105080009C15002008B54FF0500383F31188BFF33F
:105090006F8FBFF34F8F04F0E3FF28B14FF0E02391
:1050A0004FF08052C3F8042D002383F3118808BD0C
:1050B000064B1B68064AA2FB03239B09013B4FF0EA
:1050C000E022536107231361704700BFF401002001
:1050D000D34D62104FF0E023D3F8002D354B9A42A8
:1050E0001CD04FF0E023D3F8002D334B9A421ED052
:1050F00010B582B0314B1A78D2B20192FF221A70E9
:105100001B78DBB28DF803309DF8033003F05003B9
:105110002B4A13702B4B07221A601BE04FF05003F1
:1051200083F31188BFF36F8FBFF34F8FFEE74FF00C
:10513000500383F31188BFF36F8FBFF34F8FFEE7E8
:10514000204A1368013B13609DF803305B00DBB21B
:105150008DF803309DF8033013F0800FF0D1194A19
:1051600013681B02136003F4E0631360019BDBB25E
:10517000124A13704FF0E024D4F8203D43F470033A
:10518000C4F8203DD4F8203D43F07043C4F8203DDE
:10519000FFF78EFF0C4B00221A60FFF7CBFED4F80E
:1051A000343F43F04043C4F8343FFFF7B3FEFFF70A
:1051B00097FE00BF71C20F4170C20F4100E400E0D2
:1051C000280D00202C0D002000000020EFF30583A7
:1051D0000F2B0FD9114A9B5CDBB2114A12789A420D
:1051E00008D94FF0500383F31188BFF36F8FBFF3DB
:1051F0004F8FFEE74FF0E023D3F80C3D03F4E0635C
:10520000084A1268934208D94FF0500383F311887B
:10521000BFF36F8FBFF34F8FFEE77047F0E300E0FF
:10522000280D00202C0D002008B50B480B4B036007
:105230004FF4E133436000238360C36003610C22B9
:1052400042618361C36103F03DF800B908BD4E219E
:105250000348FFF705FBF9E7F00D0020004C004084
:10526000F0F4020802683B4B9A4200D070472DE9E7
:10527000F04387B004460025009503F5F6331A6C19
:1052800042F400221A641B6C03F400230093009B79
:10529000012301930226029603964FF00309CDF8ED
:1052A00010904FF00808CDF814802B4F01A9384614
:1052B00006F098FB019602960395CDF81090CDF874
:1052C000148001A9384606F08DFB2448244B036066
:1052D0004FF0006343608560C5604FF480630361F5
:1052E000456185614FF48073C3610562456200F0DA
:1052F00021FA28BB194B63639C631A481A4B03605D
:105300004FF000634360402383600023C3604FF489
:105310008062026143618361C3610362436200F0A2
:1053200009FA90B90F4B23639C63002205213420B6
:10533000FCF746FE3420FCF77BFE07B0BDE8F083A7
:105340007F210A48FFF78CFAD4E791210748FFF73D
:1053500087FAE7E7004C004000000240300D0020D3
:1053600040600240900D002070600240F0F402089E
:1053700002680C4B9A4200D0704710B504460A4AA6
:10538000136C23F4002313640321084806F010FC77
:10539000606B00F035FA206B00F032FA3420FCF735
:1053A00053FE10BD004C0040003802400000024097
:1053B00098B108B50346D0F8140210B10020C3F824
:1053C000140209B1C3F81012012183F8FC111A70FC
:1053D0001846FFF7D3FB002008BD0220704719B123
:1053E000C0F81412002070470220704708B5FFF77C
:1053F00003FC002008BD08B5D0F814322BB11B689F
:10540000984700B908BD0220FCE70220FAE708B57A
:10541000D0F814325B689847002008BD38B50446C0
:1054200000F50275284601F0D9FB0123C4F8F431D8
:10543000B4F80E32C4F8F83194F8081201F01F03E2
:10544000012B0ED0022B11D02BB101F08001204690
:10545000FFF702FC03E02946204601F03CFD002056
:1054600038BD2946204601F05AFDF8E72946204676
:1054700001F070FDF3E710B5044629BB1346D0F8E0
:10548000F421032A01D0002010BDD0F80C11D0F86F
:10549000102191420BD8D0F814321B691BB190F83F
:1054A000FC21032A0ED02046FCF72AFEEBE7891ADE
:1054B000C0F80C118A4228BF0A4692B21946FCF77E
:1054C00017FEE0E79847EEE70A46D0F814329B69EA
:1054D000002BD8D090F8FC110329D4D1114698475D
:1054E000D1E710B50446002947D11346D0F8F4217E
:1054F000022A05D094F80032012B3AD0002010BDCA
:10550000C169026A914217D88169B1FBF2F302FBCB
:1055100013132BB98A4203D8D0F8F831994218D323
:10552000D4F81432DB681BB194F8FC21032A1DD097
:105530002046FCF7F0FDDDE78A1AC26192B21946F7
:10554000FCF7BFFD00231A4619462046FFF7D7FB9C
:10555000D0E700221146FCF7B4FD0021C4F8F81191
:105560000B460A462046FFF7CAFBC3E7204698478A
:10557000DEE7002384F80032C0E70A46D0F8143290
:105580005B69002BBAD090F8FC110329B6D1114603
:105590009847B3E738B50446402300221146FFF789
:1055A0003AFB4025C4F810512B46002280212046AA
:1055B000FFF731FB2562012384F8FC31D4F818325F
:1055C0002BB1D4F814325B6821792046984700202B
:1055D00038BD01740020704790F8FC3180F8FD312F
:1055E000042380F8FC310020704790F8FD3180F8EA
:1055F000FC310020704708B590F8FC31032B01D036
:10560000002008BDD0F81432DB69002BF8D0984791
:10561000F6E700207047002070470020704708B56B
:10562000012280F8FC21D0F81422526801799047B9
:10563000002008BD30B405682C6824F480242C6058
:10564000046863608368402B05D003689960036831
:10565000DA6030BC704703689A600368D960F8E785
:1056600010B40368D9B210390C4AA2FB01421209E6
:105670000B4CA25CC2655F2909D923F47F7323F028
:10568000030304338365806D5DF8044B704723F496
:105690007F7323F003038365F5E700BFABAAAAAAD3
:1056A00008F50208836A826992B9012B0AD0022B9D
:1056B00002D00BB100207047C36A13F0807F28D15D
:1056C00000207047C36AB3F1C07F24D00020704728
:1056D000B2F5005F09D0022B25D9032B25D1C36A6F
:1056E00013F0807F23D100207047032B03D8DFE81D
:1056F00003F01404140A00207047C36A13F0807F7B
:105700000DD100207047C36AB3F1C07F09D00020DB
:105710007047012070470120704701207047012029
:10572000704701207047012070470020704701201A
:105730007047000070B5044601F06CFD002C5BD092
:105740000546002384F83430022384F8353022687B
:10575000136823F00103136023681A6812F0010F25
:105760000AD001F057FD431B052BF5D920236365B3
:10577000032084F8350070BD1A6820481040616825
:10578000A2680A43E1680A4321690A4361690A433E
:10579000A1690A43E1690A43216A0A430243616A33
:1057A00004291ED01A602668756925F00705636A0A
:1057B0001D43042B07D1A36A1D43E36A1BB1204696
:1057C000FFF770FF90B975612046FFF749FFE26D62
:1057D0003F239340836000206065012384F83530C7
:1057E000C9E7E16A206B01430A43DBE740236365B5
:1057F000012084F83500BEE70120BCE73F8010F0AF
:1058000038B338B5054690F83500C0B202281FD02D
:105810002A68136823F0010313602B6800241C60BE
:105820002B685C602B689C602B68DC602B681C61BB
:105830002B6821225A612846FFF712FFEA6D3F23A9
:10584000934083606C6585F8354085F83440204688
:1058500038BD0120704738B50446856D90F8340096
:10586000012830D0012084F8340094F83500C0B20B
:10587000012804D0002384F83430022038BD0220EF
:1058800084F83500002060652046FFF7D3FEE26D06
:105890003F239340AB602268136843F01603136004
:1058A0002268536943F080035361236C23B122685B
:1058B000136843F0080313602268136843F0010380
:1058C00013600020DAE70220D8E770B50446866D41
:1058D00001F0A0FC94F83530DBB2022B06D0802317
:1058E0006365002384F83430012070BD05462268CA
:1058F000136823F0160313602268536923F08003B2
:105900005361236CE3B12268136823F0080313602A
:105910002268136823F00103136023681B6813F0E7
:10592000010F11D001F076FC431B052BF5D9202384
:105930006365002384F83430032084F83500D4E70D
:10594000A36C002BDFD1E3E7E26D3F239340B3600C
:10595000002084F83400012384F83530C5E790F83E
:105960003530DBB2022B03D0802343650120704722
:10597000052380F835300268136823F001031360B3
:1059800000207047F0B583B0044600230193724BAA
:105990001D68724BA3FB0535AD0A876D3E68C26D6D
:1059A00008239340334210D003681A6812F0040FA2
:1059B0000BD01A6822F004021A60C26D08239340CB
:1059C000BB60436D43F001034365E26D01239340E7
:1059D000334209D02268526912F0800F04D0BB60B4
:1059E000636D43F002036365E26D04239340334229
:1059F00009D02268126812F0020F04D0BB60636DF8
:105A000043F004036365E26D10239340334224D0D6
:105A10002268126812F0080F1FD0BB6023681A6852
:105A200012F4802F0DD01B6813F4002F04D1236CC7
:105A30009BB12046984710E0A36C73B1204698476D
:105A40000BE01A6812F4807F03D11A6822F0080272
:105A50001A60236C0BB120469847E26D20239340D7
:105A6000334255D02268126812F0100F50D0BB603C
:105A700094F83530DBB2052B0ED023681A6812F487
:105A8000802F33D01B6813F4002F2AD1636C002BB6
:105A90003ED0204698473BE02268136823F0160367
:105AA00013602268536923F080035361236CA3B110
:105AB0002268136823F008031360E26D3F239340CC
:105AC000BB60002384F83430012384F83530236D23
:105AD000002B3FD0204698473CE0A36C002BE7D139
